:100000000C94D7020C94FF020C94FF020C94FF0294
:100010000C94FF020C94FF020C94FF020C94FF025C
:100020000C94FF020C94FF020C94FF020C94FF024C
:100030000C94FF020C94FF020C94FF020C94FF023C
:100040000C94C90F0C94FF020C94970F0C94710F31
:100050000C94FF020C94FF020C94FF020C94FF021C
:100060000C9413100C94FF024E414E494E495459C2
:10007000494E46CDCCCC3D0AD7233C17B7D1387773
:10008000CC2B329595E6241FB14F0A000020410089
:1000900000C84200401C4620BCBE4CCA1B0E5AAED3
:1000A000C59D7400407A10F35A00A0724E180900E2
:1000B00010A5D4E80000E87648170000E40B5402CD
:1000C0000000CA9A3B000000E1F505000080969808
:1000D00000000040420F000000A086010000001058
:1000E0002700000000E8030000000064000000009A
:1000F000000A00000000000100000000002C76D87B
:1001000088DC674F0823DFC1DFAE59E1B1B796E560
:10011000E3E453C63AE651997696E8E6C28426EBC4
:10012000898C9B62ED407C6FFCEFBC9C9F40F2BAD7
:10013000A56FA5F490055A2AF75C936B6CF9676D6F
:10014000C11BFCE0E40D47FEF520E6B500D0ED90C4
:100150002E0300943577050080841E080000204E91
:100160000A000000C80C333333330F986E1283112A
:1001700041EF8D2114893BE65516CFFEE6DB18D101
:10018000844B381BF77C1D901DA4BBE424203284D3
:10019000725E228100C9F124ECA1E53D274445535C
:1001A0004F4C44455200534F4C4445520049646CF7
:1001B0006500554E504C4700554E504C4700554E2B
:1001C000504C5547474544005057523A00536574C8
:1001D0003A0043757272656E743A00484F4C4400A1
:1001E00000000000240027002A0000000000250075
:1001F00028002B0000000000230026002900040432
:1002000004040404040402020202020203030303BE
:10021000030301020408102040800102040810209A
:100220000102040810200000000800020100000381
:1002300004070000000000000000496E6974696155
:100240006C697A696E672E2E2E00496E6974696139
:100250006C697A696E672E2E2E0052656164206388
:10026000757272656E742073657474696E6773203D
:1002700066726F6D20454550524F4D206F662000CD
:10028000536176652063757272656E742073657450
:1002900074696E677320746F20454550524F4D202E
:1002A0006F66200053686F7720696E7465726E61A7
:1002B0006C20706172616D6574657273206F662069
:1002C000504944200043757272656E7420736574E2
:1002D00074696E6773206F662000547970653A20E8
:1002E000736574205B736F6C6465722C6465736FE7
:1002F0006C6465725D205B736574706F696E742CDD
:10030000686F6C64706F696E742C6D696E2C6D61B2
:10031000782C4B702C4B642C4B692C5461755D20F0
:1003200076616C7565004E65772054617520696E45
:100330003A20004E65772072617720696E3A20007E
:10034000746175004E6577204B6420696E3A200019
:10035000726177004E6577204B6920696E3A200004
:100360004B64004E6577204B7020696E3A20004B3D
:1003700069004E6577206D696E20696E3A20004BEA
:1003800070004E6577206D617820696E3A20006DAF
:10039000696E004E657720686F6C64706F696E746B
:1003A00020696E3A20006D617800686F6C64706F30
:1003B000696E74004E657720736574706F696E7432
:1003C00020696E3A2000736574706F696E74006402
:1003D00065736F6C64657200736F6C646572007333
:1003E000657400547970653A2072656164205B73AE
:1003F0006F6C6465722C6465736F6C6465725D000C
:100400006465736F6C64657200736F6C6465720011
:100410007265616400547970653A20736176652075
:100420005B736F6C6465722C6465736F6C6465726A
:100430005D006465736F6C64657200736F6C6465F6
:1004400072007361766500547970653A2073686F45
:1004500077205B736F6C6465722C6465736F6C647A
:1004600065725D205B73657474696E67732C706967
:10047000642C74656D70657261747572655D00746D
:10048000656D706572617475726500706964007382
:10049000657474696E6773006465736F6C6465720C
:1004A00000736F6C6465720073686F7700736574B6
:1004B000205B736F6C6465722C6465736F6C64652C
:1004C000725D205B736574706F696E742C686F6CFD
:1004D00064706F696E742C6D696E2C6D61782C4B35
:1004E000702C4B642C4B692C5461755D2076616CCB
:1004F000756500546F20736574206E657720706198
:1005000072616D657465727320666F72206F626AC6
:100510006563743A005B736176652C726561645D36
:10052000205B736F6C6465722C6465736F6C6465BB
:10053000725D00546F20736176652F72656164206F
:10054000746F2F66726F6D20454550524F4D3A00C3
:1005500073686F77205B736F6C6465722C6465736E
:100560006F6C6465725D205B73657474696E67732C
:100570002C7069642C74656D706572617475726538
:100580005D00546F2073686F772063757272656EBB
:100590007420636F6E66696775726174696F6E3A15
:1005A0000048656C703A0068656C70003211112467
:1005B0001FBECFEFD8E0DEBFCDBF25E0A8E1B2E09F
:1005C00001C01D92AE32B207E1F712E0A0E0B1E047
:1005D000E8EBF5E402C005900D92A831B107D9F718
:1005E00012E0C7EDD2E004C02197FE010E942E2048
:1005F000C63DD107C9F70E944A120C94DA220C9426
:10060000000008950895EF92FF920F931F93CF93E8
:10061000DF938C017B01D0E0C0E0F701EC0FFD1F00
:100620006491662361F0D801ED91FC910190F08115
:10063000E02DC8010995892B11F02196EECFCE014E
:10064000DF91CF911F910F91FF90EF900895AF929E
:10065000BF92CF92DF92EF92FF920F931F93CF93AF
:10066000DF936C017B018B01040F151FEB015E0111
:10067000AE18BF08C017D10759F06991D601ED91A6
:10068000FC910190F081E02DC6010995892B79F745
:10069000C501DF91CF911F910F91FF90EF90DF90F7
:1006A000CF90BF90AF900895FC01538D448D252FBE
:1006B00030E0842F90E0821B930B541710F0CF96FC
:1006C000089501970895FC01918D828D981761F02E
:1006D000A28DAE0FBF2FB11D5D968C91928D9F5F45
:1006E0009F73928F90E008958FEF9FEF0895FC0124
:1006F000918D828D981731F0828DE80FF11D858DD7
:1007000090E008958FEF9FEF0895FC01918D228D69
:10071000892F90E0805C9F4F821B91098F739927EE
:1007200008958FE693E00E94850321E0892B09F468
:1007300020E0822F089580E090E0892B29F00E942C
:10074000910381110C9400000895FC01A48DA80F61
:10075000B92FB11DA35ABF4F2C91848D90E0019603
:100760008F739927848FA689B7892C93A089B18923
:100770008C91837080648C93938D848D981306C0C4
:100780000288F389E02D80818F7D80830895EF9228
:10079000FF920F931F93CF93DF93EC0181E0888F3B
:1007A0009B8D8C8D98131AC0E889F989808185FF0B
:1007B00015C09FB7F894EE89FF896083E889F989AD
:1007C00080818370806480839FBF81E090E0DF91AF
:1007D000CF911F910F91FF90EF900895F62E0B8D02
:1007E00010E00F5F1F4F0F731127E02E8C8D8E11BD
:1007F0000CC00FB607FCFACFE889F989808185FF24
:10080000F5CFCE010E94A503F1CFEB8DEC0FFD2FAC
:10081000F11DE35AFF4FF0829FB7F8940B8FEA89DE
:10082000FB8980818062CFCFCF93DF93EC01888DED
:100830008823B9F0AA89BB89E889F9898C9185FD5B
:1008400003C0808186FD0DC00FB607FCF7CF8C91E9
:1008500085FFF2CF808185FFEDCFCE010E94A503F9
:10086000E9CFDF91CF910895833081F028F4813072
:1008700099F08230A9F008958730A9F08830C9F046
:100880008430B1F4809180008F7D03C0809180001E
:100890008F7780938000089584B58F7784BD089505
:1008A00084B58F7DFBCF8091B0008F778093B000AF
:1008B00008958091B0008F7DF9CFCF93DF93282FDB
:1008C00030E0F901EA5DFD4F8491F901EE5EFD4FE4
:1008D000D491F901E250FE4FC491CC23A1F08111D3
:1008E0000E943404EC2FF0E0EE0FFF1FEC50FE4F9F
:1008F000A591B491EC91ED2381E090E009F480E0C2
:10090000DF91CF91089580E090E0FACF1F93CF93CD
:10091000DF93282F30E0F901EA5DFD4F8491F90162
:10092000EE5EFD4FD491F901E250FE4FC491CC230D
:10093000A9F0162F81110E943404EC2FF0E0EE0F85
:10094000FF1FE651FE4FA591B4918FB7F894EC913B
:10095000111108C0D095DE23DC938FBFDF91CF91BA
:100960001F910895DE2BF8CFCF93DF9390E0FC0129
:10097000EE5EFD4F249182509E4FFC0184918823AE
:10098000C9F090E0880F991FFC01E052FE4FA5913D
:10099000B491FC01E651FE4FC591D49161110DC097
:1009A0009FB7F8948C91209582238C93888128237B
:1009B00028839FBFDF91CF910895623051F49FB794
:1009C000F8943C91822F809583238C93E8812E2B81
:1009D000EFCF8FB7F894EC912E2B2C938FBFEACFEB
:1009E0001F93CF93DF93182FEB0161E00E94B404B3
:1009F000209739F460E0812FDF91CF911F910C9403
:100A00008604CF3FD10511F461E0F5CFE12FF0E08E
:100A1000EA5DFD4FE491E33031F140F4E130B1F0B3
:100A2000E230E1F0C038D1057CF7E4CFE73029F1BE
:100A3000E83059F1E430B1F7809180008062809312
:100A40008000D0938B00C0938A0004C084B5806876
:100A500084BDC7BDDF91CF911F91089584B5806299
:100A600084BDC8BDF7CF80918000806880938000EE
:100A7000D0938900C0938800EDCF8091B00080684A
:100A80008093B000C093B300E5CF8091B000806246
:100A90008093B000C093B400DDCF3FB7F89480914D
:100AA000D3029091D402A091D502B091D60226B57E
:100AB000A89B05C02F3F19F00196A11DB11D3FBF96
:100AC000BA2FA92F982F8827BC01CD01620F711D65
:100AD000811D911D42E0660F771F881F991F4A955F
:100AE000D1F708958F929F92AF92BF92CF92DF92EB
:100AF000EF92FF924B015C010E944D056B017C015E
:100B00000E944D056C197D098E099F09683E73404E
:100B100081059105A8F321E0821A9108A108B10886
:100B200088EEC80E83E0D81EE11CF11C81149104EC
:100B3000A104B10429F7FF90EF90DF90CF90BF9010
:100B4000AF909F908F9008952FB7F8946091CF0247
:100B50007091D0028091D1029091D2022FBF08955E
:100B60001F93CF93DF93EC01162FE881F981028068
:100B7000F381E02D42E050E00995198B1886E88159
:100B8000F9810190F081E02DCE010995882319F0BB
:100B90008885836088870E94A4056A837B838C8311
:100BA0009D83DF91CF911F910895862F642F0C9420
:100BB000B404FC0181890E945D0421E0892B09F4C1
:100BC00020E0822F0895AF92BF92CF92DF92EF92F2
:100BD000FF921F93CF93DF937C0110E0C7E0D0E03A
:100BE00083E2C82ED12CAA24A394B12C60E0F70193
:100BF00080810E948604C6010197F1F7F701818187
:100C00000E945D04892B39F0C5010C2E01C0880FAC
:100C10000A94EAF7182B61E0F70180810E948604AC
:100C2000C6010197F1F7219708F7812FDF91CF9146
:100C30001F91FF90EF90DF90CF90BF90AF900895FD
:100C400020918402260F3327331F21323105ECF423
:100C50002091A802FC0190E080E0243069F082E05D
:100C60000895A09184022191AC014C595D4FA40FCD
:100C7000B52FB11D2C930196861798F380918402AD
:100C8000680F6093840280E0089581E008951092D7
:100C9000A80281E08093AA021092A90261E082E199
:100CA0000E94860461E083E10E948604E9EBF0E0A3
:100CB00080818E7F808380818D7F808388E4809394
:100CC000B80085E48093BC000895CF93DF9391E052
:100CD000909363028823B9F0C091B800D091BA0014
:100CE0008091BC008A7B8093BC0060E082E10E941E
:100CF000860460E083E10E9486040E944706D09348
:100D0000BA00C093B800DF91CF9108950895E091A3
:100D1000DE028091DD02E81730F4F0E0E25CFD4F86
:100D2000808190E008958FEF9FEF08959091DE020B
:100D30008091DD022FEF3FEF981748F4E92FF0E0A4
:100D4000E25CFD4F208130E09F5F9093DE02C9019D
:100D500008958091DD029091DE02891B990B089520
:100D6000CF92DF92EF92FF920F931F93CF93DF9377
:100D70007C01CB018A0120913D02222389F0EB0105
:100D80006B01C40ED51ECC15DD0569F06991D70144
:100D9000ED91FC910190F081E02DC7010995F3CF11
:100DA000642F0E942006C801DF91CF911F910F91FF
:100DB000FF90EF90DF90CF900895CF93DF931F9235
:100DC000CDB7DEB7698320913D022223F9F020914F
:100DD000DB02203258F021E030E0FC013383228333
:100DE00090E080E00F90DF91CF9108958091DC0238
:100DF000E82FF0E0E35EFD4F998190838F5F809351
:100E0000DC028093DB0281E090E0ECCF61E0CE0178
:100E100001960E942006F7CFCF92DF92EF92FF92C9
:100E20000F931F93CF93DF93FC01C48121E02093A4
:100E30003D02C0931C021092DC021092DB028385FB
:100E4000682B8CE094E00E94DD06D091DB02D13269
:100E500008F092C00E944D056B017C018091A802B0
:100E6000811165C082E08093A80281E08093AA028C
:100E70008FEF8093A7021092CC02D093CB02ADE10A
:100E8000B2E0EBEAF2E080E0D81385C01092CD0228
:100E90008091CD02CC0FC82BC093CD028091A902C6
:100EA000813009F07CC01092A9020E944D056B01AF
:100EB0007C018091CD028093BB0080915F02909174
:100EC0006002A0916102B0916202892B8A2B8B2B68
:100ED00099F00E944D0500915F02109160022091EF
:100EE0006102309162026C197D098E099F09061713
:100EF000170728073907E0F18091BC0083FDD9CF9F
:100F000085EC8093BC000E944D056B017C018091B3
:100F1000A802823009F445C08091A7028F3F61F199
:100F20008091A702803241F18091A70225C0809173
:100F30005F0290916002A0916102B0916202892BE0
:100F40008A2B8B2B09F48ACF0E944D0500915F02FA
:100F50001091600220916102309162026C197D094A
:100F60008E099F09061717072807390708F076CF5B
:100F700080915E020E9465061092DC021092DB02F4
:100F800010923D02DF91CF911F910F91FF90EF9052
:100F9000DF90CF9008959D9191938F5F75CF85EEEF
:100FA000B0CF80915F0290916002A0916102B091F8
:100FB0006202892B8A2B8B2B09F4A9CF0E944D0545
:100FC00000915F02109160022091610230916202F3
:100FD0006C197D098E099F0906171707280739071D
:100FE00008F095CFC5CF089590E080E00895CF93A5
:100FF000FC01C28120916D0330916E0370E060E0CE
:101000002230310538F460857185828593850E9490
:10101000F51F70E08C2FCF910C94F0044F925F92EB
:101020006F927F928F929F92AF92BF92CF92DF92F8
:10103000EF92FF920F931F93CF93DF938C010E9447
:10104000A4054B015C01F80184A595A5A6A5B7A54B
:10105000A5019401281B390B4A0B5B0BDA01C9016E
:10106000863E9105A105B10508F49AC060E07801BB
:1010700034E5E30EF11CF70182810E94860483E2CD
:1010800090E00197F1F7C7010E94E305C82FD0E077
:10109000DC2FCC27C7010E94E305C82B61E0F701D4
:1010A00082810E948604C12CD12C90ECE92E9FE70E
:1010B000F92EC2FD12C023E0D695C7952A95E1F717
:1010C000BE0190E080E00E94861D20E030E040E814
:1010D0005EE30E94E71D6B017C0120E030E0A90186
:1010E000F80160897189828993890E94811D87FF37
:1010F00005C0F801C08AD18AE28AF38A26E636E67C
:1011000046E65FE3F80160897189828993890E94CC
:10111000E71D2B013C012DEC3CEC4CEC5DE3C701E1
:10112000B6010E94E71D9B01AC01C301B2010E9400
:10113000101F6B017C0120E030E0A9010E942420F7
:1011400020E030E040E05FE387FD3BC0C701B6012F
:101150000E94101F0E94EE1F0E94881D6B017C01DF
:1011600020E030E0A9010E94811D87FD2FC020E012
:1011700030E04AE754E4C701B6010E942420181663
:1011800034F4C12CD12C8AE7E82E84E4F82EF8013F
:10119000C08AD18AE28AF38A84A695A6A6A6B7A6B3
:1011A000DF91CF911F910F91FF90EF90DF90CF9043
:1011B000BF90AF909F908F907F906F905F904F9077
:1011C0000895C701B6010E940F1FC4CFC12CD12CB6
:1011D0007601DDCFCF92DF92EF92FF920F931F93B4
:1011E000CF93DF93EB017B012CE1E20EF11C8B012D
:1011F0006C01C61AD70AC601800F911F0E94A81E53
:10120000F80181938F01EE15FF05A9F7CE01DF915B
:10121000CF911F910F91FF90EF90DF90CF900895A5
:10122000EF92FF920F931F93CF93DF93CDB7DEB76B
:10123000C054D1090FB6F894DEBF0FBECDBF162F34
:10124000072F40E450E0BC01CE0101967C010E94D2
:10125000C219E12F110FFF0BE75DFC4FD7018A2F59
:101260008E1980179CF49D9181919817C1F380E0AD
:10127000C05CDF4F0FB6F894DEBF0FBECDBFDF916D
:10128000CF911F910F91FF90EF90089581E0F0CFE3
:10129000FB0101900020E9F73197AF01461B570B86
:1012A000DC01ED91FC910280F381E02D0994CF9354
:1012B000DF93D0E0C0E0009731F0BC018FE693E00F
:1012C0000E944809EC0164E172E08FE693E00E941D
:1012D00048098C0F9D1FDF91CF910895CF93DF9325
:1012E000BC018FE693E00E940303EC0164E172E02D
:1012F0008FE693E00E9448098C0F9D1FDF91CF91EC
:1013000008956115710511F00C94480990E080E092
:1013100008950E94342085ED8093BC0080915F0287
:1013200090916002A0916102B09162020796A11DA6
:10133000B11D23E0B695A795979587952A95D1F786
:101340002091BC0024FD03C01092A8020895409192
:101350005F02509160026091610270916202452BC0
:10136000462B472B69F30097A105B10541F025E312
:101370002A95F1F700000197A109B109E1CF809109
:101380005E020C9465060F931F93CF938C01C62FBA
:101390000E940C076C2F6460C8010E940C076C2F20
:1013A0006B7FC8010E940C0783EC90E00197F1F776
:1013B000CF911F910F9108950F931F93CF93DF93B8
:1013C0008C01D62FC42F607F642B0E94C30980E15B
:1013D000D89FB00111246C2BC801DF91CF911F91D0
:1013E0000F910C94C309CF93DF93CDB7DEB7289745
:1013F0000FB6F894DEBF0FBECDBF98E0E1E0F1E09C
:10140000DE01119601900D929A95E1F790912805D1
:10141000961710F46FEF690F262F30E0220F331F5D
:1014200041E050E04C0F5D1F240F351FF901608132
:10143000680F606840E080E295E028960FB6F89467
:10144000DEBF0FBECDBFDF91CF910C94DC0940E031
:1014500061E080E295E00E94DC098BE39FE1019767
:10146000F1F7089541E00E94DC0981E090E00895E1
:1014700041E0682F80E295E00E94DC0981E090E085
:1014800008952F923F924F925F926F927F928F9228
:101490009F92AF92BF92CF92DF92EF92FF920F9303
:1014A0001F93CF93DF93CDB7DEB7A6970FB6F8940F
:1014B000DEBF0FBECDBF1C010E940E0820E030E051
:1014C00048EC51E4D1011C966D917D918D919C91D8
:1014D0001F970E94811D18160CF411C2F10110868D
:1014E000118612861386C1010E94F7078091440479
:1014F00080FD74C00E94A405009118021091190289
:1015000020911A0230911B02601B710B820B930B0E
:101510006B3F71058105910508F460C00E94A40528
:1015200000914504109146042091470430914804ED
:10153000601B710B820B930B20E030E040E85FE30F
:10154000683E734081059105D8F00E94A405009182
:101550004504109146042091470430914804601BD3
:10156000710B820B930B20E030E040E251E46C3AC7
:101570007D408105910520F020E030E048EC51E409
:10158000F10164857585868597850E94101FD101BC
:101590001C966D937D938D939C931F9720E030EC68
:1015A00049E754E4F10164857585868597850E9435
:1015B000242018164CF480E090ECA9E7B4E4F10183
:1015C00084879587A687B7870E94A4056093180231
:1015D0007093190280931A0290931B028091200449
:1015E00080FD6EC00E94A40500911802109119029E
:1015F00020911A0230911B02601B710B820B930B1E
:101600006B3F71058105910508F45AC00E94A4053D
:10161000009121041091220420912304309124048C
:10162000601B710B820B930B20E030E040E85FE31E
:10163000683E734081059105D8F00E94A405009191
:101640002104109122042091230430912404601B72
:10165000710B820B930B20E030E040E251E46C3AD6
:101660007D408105910520F020E030E048EC51E418
:10167000D1011C966D917D918D919C911F970E9437
:101680000F1FF101648775878687978720E030E018
:10169000A90164857585868597850E94811D87FFD0
:1016A00005C0F10114861586168617860E94A405CA
:1016B000609318027093190280931A0290931B0290
:1016C0008091320480FD52C00E94A405009118024E
:1016D0001091190220911A0230911B02601B710BAC
:1016E000820B930B6B3F71058105910508F43EC099
:1016F0000E94A40500913304109134042091350414
:1017000030913604601B710B820B930B683E734063
:101710008105910508F0A8C2D10113968C9191E042
:10172000811190E0F1019383811199C2848595859F
:10173000A685B78580A391A3A2A3B3A3E45BFF4FC3
:1017400080819181A281B381F10184879587A687E9
:10175000B78781E0809300010E94A405609318027E
:101760007093190280931A0290931B020E94A405A1
:10177000653F71408105910508F45CC0D101509628
:101780006D917D918D919C9153979B01AC010E942D
:10179000292081114FC062E08CE00E94F309F10121
:1017A00064857585868597858E010F5F1F4F20E0C4
:1017B00043E00E948219B80180E295E00E9481090D
:1017C0008FED0E94380A61E471E080E295E00E94AA
:1017D000810961E08CE00E94F309D10150966D917E
:1017E0007D918D919C91539720E043E00E94821956
:1017F000B80180E295E00E9481098FED0E94380ACD
:1018000061E471E080E295E00E94810963E08CE090
:101810000E94F309F10164817581868197810FED42
:1018200012E020E043E00E948219B80180E295E0D6
:101830000E94810980910001882309F447C00E9419
:10184000270A60E086E00E94F309D1016D917C9146
:1018500080E295E00E948109F1018381882351F0A3
:1018600060E08FE00E94F3096BED71E080E295E0AB
:101870000E940303D10150966D917D918D919C91B1
:1018800053979B01AC010E9429208111F0C161E0B6
:101890000E94F30962ED71E080E295E00E9403038B
:1018A00062E080E00E94F3096DEC71E080E295E077
:1018B0000E94030363E080E00E94F30968EC71E09A
:1018C00080E295E00E94030310920001A6960FB6F5
:1018D000F894DEBF0FBECDBFDF91CF911F910F9166
:1018E000FF90EF90DF90CF90BF90AF909F908F9040
:1018F0007F906F905F904F903F902F900895D1010F
:101900009C964D915D916D917C919F97D0968D9114
:101910009D910D90BC91A02D84179507A607B70740
:1019200008F0E1CD0E94A4056BA37CA38DA39EA328
:10193000D10150962D913D914D915C9153972F8BF4
:10194000388F498F5A8F1C966D917D918D919C9106
:101950001F970E940F1F6B8F7C8F8D8F9E8FF101C1
:1019600044A055A066A077A080A991A9A2A9B3A977
:101970002BA13CA14DA15EA1281B390B4A0B5B0B8F
:10198000CA01B9010E94861D6F8F78A389A39AA30B
:10199000D101D8962D913D914D915C91DB976B8D46
:1019A0007C8D8D8D9E8D0E94E71D6B017C01F10168
:1019B000C08ED18EE28EF38E20E030E040E05FE317
:1019C00064AD75AD86AD97AD0E94E71D2F8D38A132
:1019D00049A15AA10E94E71D20E030E04AE754E403
:1019E0000E947C1F4B015C01A30192016B8D7C8DD9
:1019F0008D8D9E8D0E94101F9B01AC01C501B4010D
:101A00000E94E71DD10154962D913D914D915C911D
:101A100057970E94101F762E672E582E492EF101DF
:101A2000EC5BFF4FB081BB8B21812C8B32813D8BD6
:101A300043814E8B2B2F3C894D895E89C701B601AE
:101A40000E94811D87FFF4C0A70196016B897C89E4
:101A50008D899E890E940F1F4B015C01F101E85B9B
:101A6000FF4F50815D8781818E8792819F87A381FF
:101A7000A88B252F382F492F5A2FC701B6010E9456
:101A8000242018160CF0D9C0A70196016D857E851B
:101A90008F8598890E940F1F698B7A8B8C01298909
:101AA0003A89A801672D762D852D942D0E94811DE0
:101AB00087FD0FC09401A501672D762D852D942DEE
:101AC0000E94242018160CF4BDC0798A6A8A052D5C
:101AD000142D89899A89D801F101848B958BA68B65
:101AE000B78BE05BFF4F60817181828193819B01A5
:101AF000AC010E94101F4B015C01F101E05CFF4F43
:101B000060817181828193819B01AC010E94101FD1
:101B10002B013C01D10198962D913D914D915C9105
:101B20009B976F89788D898D9A8D0E940F1F9B01DD
:101B3000AC01C301B2010E94E71D2B013C012F8DB6
:101B400038A149A15AA1C501B4010E940F1FF1019A
:101B5000248D358D468D578D0E94E71D9B01AC016C
:101B6000C301B2010E94101F2B013C01A501940189
:101B70006F8D78A189A19AA10E94101F9B01AC01D1
:101B8000C301B2010E947C1F4B015C01D1015C9634
:101B90008D929D92AD92BC925F9729893A89A80156
:101BA000C701B6010E94101FA50194010E94101FD9
:101BB0007B018C019B01AC016D857E858F859889A9
:101BC0000E942420181674F09701A8016B897C8963
:101BD0008D899E890E94811D87FD38C0ED86FE8615
:101BE0000F87188B8D859E85AF85B889F101848319
:101BF0009583A683B78380879187A287B3872B8D30
:101C00003C8D4D8D5E8D24A335A346A357A32F890C
:101C1000388D498D5A8D20A731A742A753A72BA1F4
:101C20003CA14DA15EA120AB31AB42AB53AB5BCC31
:101C3000812C912CA12CB12C11CF198A1A8A00E089
:101C400010E02DCF898A9A8A850143CFBB89BD8751
:101C5000EC89EE87FD89FF872E89288BC3CF80A171
:101C600091A1A2A1B3A171CD0E94A40575CD62E09E
:101C700086E00E94F3096EEB71E022CECF92DF92F4
:101C8000EF92FF920F931F9389EC94E00E940E084D
:101C900082E794E00E940E0889EC94E00E94F70726
:101CA00082E794E00E94F7078091320480FD29C00A
:101CB0000E94A405C0901802D0901902E0901A0268
:101CC000F0901B026C197D098E099F096B3F71050D
:101CD00081059105B0F081E090E020916D03222311
:101CE00011F090E080E090936E0380936D030E946A
:101CF000A405609318027093190280931A029093BE
:101D00001B020E94A405653F71408105910508F4FE
:101D10007CC060E08EE00E94F30980916D03909199
:101D20006E0363E471E0019711F068E471E080E212
:101D300095E00E94810961E08CE00E94F309C09067
:101D4000D904D090DA04E090DB04F090DC04A70121
:101D50009601C701B6010E9429208111B4C00FED80
:101D600012E020E043E0C701B6010E948219B801E9
:101D700080E295E00E9481098FED0E94380A61E4BB
:101D800071E080E295E00E94810961E083E10E94B8
:101D9000F3098091CC04882319F088E40E94380A62
:101DA00062E08CE00E94F309C0908204D09083042A
:101DB000E0908404F0908504A7019601C701B60164
:101DC0000E942920811186C00FED12E020E043E03F
:101DD000C701B6010E948219B80180E295E00E9415
:101DE00081098FED0E94380A61E471E080E295E09C
:101DF0000E94810962E083E10E94F30980917504E9
:101E0000882319F088E40E94380A80910001882311
:101E100009F452C01092DD041092DE041092DF0427
:101E20001092E004109286041092870410928804A5
:101E3000109289041092D1041092D2041092D3040B
:101E40001092D4041092CD041092CE041092CF04BC
:101E50001092D00410927A0410927B0410927C04A9
:101E600010927D04109276041092770410927804F8
:101E7000109279040E94270A60E087E00E94F3092B
:101E80006DEA71E080E295E00E94030361E083E087
:101E90000E94F30966EA71E080E295E00E94030384
:101EA00062E083E00E94F3096DE971E080E295E071
:101EB0000E940303109200011F910F91FF90EF9079
:101EC000DF90CF90089568EB71E080E295E00E948A
:101ED000030366CF62EB71E080E295E00E940303AA
:101EE00094CF1F920F920FB60F9211242F933F930E
:101EF0004F935F936F937F938F939F93AF93BF9312
:101F0000EF93FF938FE693E00E94A503FF91EF917B
:101F1000BF91AF919F918F917F916F915F914F9101
:101F20003F912F910F900FBE0F901F9018951F9209
:101F30000F920FB60F9211242F938F939F93EF93CD
:101F4000FF93E0917F03F09180038081E09185030E
:101F5000F091860382FD1BC09081809188038F5F82
:101F60008F7320918903821741F0E0918803F0E09C
:101F7000E159FC4F958F80938803FF91EF919F91DA
:101F80008F912F910F900FBE0F901F901895808109
:101F9000F4CF1F920F920FB60F9211242F933F93FD
:101FA0008F939F93AF93BF938091CF029091D00274
:101FB000A091D102B091D2023091CE0223E0230F42
:101FC0002D3758F50196A11DB11D2093CE028093A7
:101FD000CF029093D002A093D102B093D20280910D
:101FE000D3029091D402A091D502B091D60201966D
:101FF000A11DB11D8093D3029093D402A093D5026A
:10200000B093D602BF91AF919F918F913F912F9145
:102010000F900FBE0F901F90189526E8230F029681
:10202000A11DB11DD2CF1F920F920FB60F92112496
:102030002F933F934F935F936F937F938F939F93D0
:10204000AF93BF93EF93FF938091B900887F803661
:1020500009F44AC0F0F5883209F4A7C018F58031B8
:1020600009F49BC0B8F4882309F4F9C0883009F456
:1020700094C0FF91EF91BF91AF919F918F917F910C
:102080006F915F914F913F912F910F900FBE0F90E5
:102090001F901895883109F488C0803251F78093D9
:1020A000A70214C0803409F49DC040F48033B9F312
:1020B0008833F9F68093A70285ECB0C0803509F427
:1020C00085C0883509F496C0883499F60E948B093A
:1020D000D0CF883909F48CC038F5883729F050F40E
:1020E000883611F0803729F683E08093A802109299
:1020F000A60257C0883809F47BC0803919F08038AF
:1021000009F0B7CF8091A602803208F071C0E0914B
:10211000A60281E08E0F8093A6028091BB00F0E0C2
:10212000EA57FD4F80833DC0803B39F0E0F4803AB0
:1021300009F479C0883A09F09CCF84E08093A80222
:102140001092850210928402E091D902F091DA0295
:1021500009958091840281110FC081E080938402EF
:102160001092640209C0803C09F4A6CF883C09F4AF
:10217000A3CF883B09F07DCFE091850281E08E0FEF
:1021800080938502F0E0EC59FD4F80818093BB0085
:10219000909185028091840229C08091CD02809324
:1021A000BB0085EC8093BC0064CF9091CC02809101
:1021B000CB02981758F5E091CC0281E08E0F809306
:1021C000CC02F0E0E555FD4F8081E9CFE091CC02F3
:1021D00081E08E0F8093CC028091BB00F0E0E5554A
:1021E000FD4F80839091CC028091CB029817C8F26A
:1021F00085E8D8CFE091CC0281E08E0F8093CC02AD
:102200008091BB00F0E0E555FD4F80838091AA02EC
:1022100081115CCF81E08093A90284EA8093BC00A5
:102220001092A80226CF85EC8093BC001092A802E1
:102230008091A602803230F4E091A602F0E0EA57E5
:10224000FD4F10826091A60270E0E091D702F091FC
:10225000D80286E892E009951092A6020ACF109261
:10226000A70234CFCF92DF92EF92FF92CF93DF930A
:10227000109272031092710388EE93E0A0E0B0E038
:102280008093730390937403A0937503B0937603C4
:102290002DE031E03093700320936F0325EC30E0A4
:1022A00030937C0320937B0324EC30E030937E0357
:1022B00020937D0320EC30E03093800320937F0354
:1022C00021EC30E0309382032093810322EC30E054
:1022D000309384032093830326EC30E0309386030D
:1022E00020938503109288031092890310928A0329
:1022F00010928B0310920F0410920E04809310041E
:1023000090931104A0931204B09313048FE191E011
:1023100090930D0480930C041092230510922205D3
:1023200089E391E090932105809320058FE38093CA
:10233000240584E18093290584E080932A05109286
:102340002B058DE491E09093CA048093C90489E041
:102350008093CB04DDE0D0931D058BE080931F05B7
:10236000CCE0C0931E0561E00E94B40461E080915E
:102370001D050E94B40460E080911E050E94B40413
:1023800061E080911F050E948604C12CD12C88EC4D
:10239000E82E82ECF82EC092D904D092DA04E092B2
:1023A000DB04F092DC0461E089E00E94B40470E098
:1023B00060E089E00E94F0041092FD041092FE0497
:1023C0001092FF041092000561E075E090E080E05B
:1023D0000E94EA0884E591E090937304809372046C
:1023E00083E080937404D093C6048AE08093C80489
:1023F000C093C70461E00E94B40461E08091C60408
:102400000E94B40460E08091C7040E94B40461E0BB
:102410008091C8040E948604C0928204D0928304F2
:10242000E0928404F092850461E083E00E94B404A9
:1024300070E060E083E00E94F0048CE190E0A0E0B6
:10244000B0E08093A6049093A704A093A804B0934F
:10245000A9046AEA74E00E94EA08E8E1F4E082E78D
:1024600094E04AE050E021E331E0128213821482CA
:10247000158257834683108631832083118A729692
:102480008E179F0791F7DF91CF91FF90EF90DF902C
:10249000CF900895CF93DF93CDB7DEB7C354D10962
:1024A0000FB6F894DEBF0FBECDBF789484B58260BE
:1024B00084BD84B5816084BD85B5826085BD85B5E8
:1024C000816085BD80916E00816080936E00109266
:1024D00081008091810082608093810080918100E1
:1024E0008160809381008091800081608093800072
:1024F0008091B10084608093B1008091B0008160D0
:102500008093B00080917A00846080937A008091FB
:102510007A00826080937A0080917A008160809353
:102520007A0080917A00806880937A001092C100CE
:1025300062E087E00E94B40462E085E00E94B40497
:1025400062E086E00E94B40462E088E00E94B40485
:1025500062E08EE00E94B40482E794E078E1872E86
:1025600074E0972E2FE030E0D40112961D921D9258
:102570001D921C92159718961C9218974A855B8598
:102580006C857D85F40141875287638774874E850A
:102590005F85688979891D964D935D936D937C93D2
:1025A000509751961C92519717963C932E931697DD
:1025B000B2E18B0E911C88159905B1F667E070E0C9
:1025C00088E194E00E94B00566E070E08AE294E061
:1025D0000E94B00565E070E08CE394E00E94B005D5
:1025E00068E070E08EE494E00E94B0056EE070E078
:1025F00080E694E00E94B005E0917F03F0918003B3
:1026000082E08083E0917B03F0917C031082E09173
:102610007D03F0917E0380E1808310928703E09137
:102620008303F091840386E08083E0918103F0913D
:102630008203808180618083E0918103F091820335
:10264000808188608083E0918103F09182038081A2
:1026500080688083E0918103F091820380818F7D87
:1026600080838FE693E00E948503892B41F08DE5FE
:1026700091E00E9457098DE691E00E94570910925F
:10268000DE021092DD021092DC021092DB020E9448
:10269000470681E093E09093DA028093D90282E0CA
:1026A00093E09093D8028093D702109225058091F1
:1026B0002A05823018F098E090932505809328052C
:1026C00062E370E080E090E00E94720560912B056B
:1026D00080E295E00E940C0768EE73E080E090E0F5
:1026E0000E94720560E380E295E00E94C3090BE45A
:1026F00016E4C8010197F1F760E380E295E00E94DB
:10270000C309C8010197F1F760E380E295E00E94F8
:10271000C30983E592E00197F1F760E280E295E07A
:102720000E94C30960912505606240E080E295E067
:102730000E94DC0984E08093260540E06CE080E2A2
:1027400095E00E94DC090E94270A82E08093270519
:1027500040E066E080E295E00E94DC0940E062E053
:1027600080E295E00E94DC090BE31FE1C8010197BC
:10277000F1F788E080932B0560E080E295E00E940D
:102780000C07609126056D7F60932605686040E028
:1027900080E295E00E94DC0940E062E080E295E0A2
:1027A0000E94DC09C8010197F1F740E450E06AE4B7
:1027B00072E0FE0131967F01CF010E94C219F7013C
:1027C00001900020E9F73197EE19FF098E2FEE23D3
:1027D00069F0E53154F484E190E08E1B9109E7FD46
:1027E00093959595879585310CF080E061E00E9486
:1027F000F3096AE372E080E295E00E94030368EE69
:1028000073E080E090E00E9472050E94270A59E27E
:10281000252E53E0352E08E114E0D80118968C914E
:1028200018978B7F18968C931897ED91FC910190D7
:10283000F081E02DC8010995D82EF8018085869594
:102840008170D81609F457C00E94A405D8011296C9
:102850006D937D938D939C93159718968C91B2E010
:102860008B27F80180870E5E1F4F08151905A9F602
:1028700080916D0390916E03892B09F0ECC09091CB
:102880006C0390936B03809168048095817023960C
:102890008FAF239724961FAE249724962EAD3FAD7D
:1028A0002497220F331F8091560480958170822BCC
:1028B00080936C039817B1F0813009F068C04091A3
:1028C000E9045091EA046091EB047091EC044093A8
:1028D000D5045093D6046093D7047093D804B1E024
:1028E000B0930001813009F466C0823009F4B0C0B1
:1028F0000E943E0E64C00E94A405D80112964D901D
:102900005D906D907C901597AB01BC014419550901
:102910006609770916968D919C91B0E0A0E0481762
:1029200059076A077B0708F49ECFF80180858170FC
:10293000D81609F498CF0E94A405D80112966D9379
:102940007D938D939C93159718968C91B1E08B276E
:102950008460F80180870E94A405D80119964D90E3
:102960005D906D907C901C97641975098609970994
:10297000F801658776878787908B0E94A405D80128
:1029800019966D937D938D939C931C976CCF823099
:1029900009F0A5CF40919204509193046091940462
:1029A0007091950440937E0450937F04609380045B
:1029B0007093810494CF89EC94E00E94410A809145
:1029C000CC0481110CC080916C03813041F01092D5
:1029D000D5041092D6041092D7041092D804809196
:1029E000750481110CC080916C03823041F010920B
:1029F0007E0410927F0410928004109281048FE66E
:102A000093E00E948503892BB1F08FE693E00E944A
:102A1000630380936A03882371F0309169038A30DD
:102A200029F13034DCF01092690330E020E0275DBA
:102A30003C4FF901808380E090E0892B09F4EBCED4
:102A40000E949103882309F4E6CE0E940000E3CEA1
:102A500082E794E0B2CF0E943E0ED1CF91E0930F77
:102A600090936903232F330F330BE1CFE32F032E12
:102A7000000CFF0BE75DFC4FDF0111978C918D304F
:102A8000D1F61082A9E2B3E080E020E090E0831765
:102A9000ECF44D9141524E3558F4911107C0E22F9C
:102AA000EE0FFF0BE15EFC4F808391E08F5FEFCF75
:102AB0009923E1F3E22FEE0FFF0BE15EFC4F9081D3
:102AC000482F491B41832F5F90E0F0CF109269039C
:102AD00060911F037091200387EA95E00E9410091E
:102AE0008823E9F081EA95E00E946E0982E895E08A
:102AF0000E946E0980E595E00E946E0983E395E0EF
:102B00000E946E0985E195E00E946E0983EF94E0D2
:102B10000E946E098DEA94E00E946E098CCF60914C
:102B20001F037091200388EA94E00E941009882313
:102B300009F4D3C1609121037091220381EA94E0EA
:102B40000E941009D12CC12C882321F029ECC22E1F
:102B500024E0D22E609121037091220388E994E051
:102B60000E9410098111ECC0C114D10409F4B2C152
:102B700060912303709124038FE894E00E94100970
:102B8000882309F4E2C065EC72E08FE693E00E94CE
:102B90000303D6016D917C918FE693E00E94810939
:102BA00064E172E08FE693E00E948109F60160899A
:102BB000718982899389870127E043E00E94821905
:102BC000FF92EF9285E891E09F938F938FEDA82E6F
:102BD00082E0B82EBF92AF920E943920C5010E94B8
:102BE0005709F60160AD71AD82AD93AD27E043E0CA
:102BF0000E948219FF92EF9285E991E09F938F9353
:102C0000BF92AF920E943920C5010E945709F60178
:102C100064AD75AD86AD97AD27E043E00E948219A3
:102C2000FF92EF9280EA91E09F938F93BF92AF92D1
:102C30000E943920C5010E945709F601E05CFF4F50
:102C4000608171818281938127E043E00E94821933
:102C5000FF92EF92EBEAF1E0FF93EF93BF92AF9216
:102C60000E943920C5010E945709F601EC5BFF4F15
:102C7000608171818281938127E043E00E94821903
:102C8000FF92EF9286EB91E09F938F93BF92AF926A
:102C90000E943920C5010E945709F601E85BFF4FE9
:102CA000608171818281938127E043E00E948219D3
:102CB000FF92EF9282EC91E09F938F93BF92AF923D
:102CC0000E9439200FB6F894DEBF0FBECDBFC501FC
:102CD0000E945709D6011C966D917D918D919C9112
:102CE0001F9727E043E00E948219FF92EF928EEC3B
:102CF00091E09F938F93BF92AF920E943920C501BC
:102D00000E945709F601E45BFF4F60817181828167
:102D1000938127E043E00E948219FF92EF9280EEB8
:102D200091E09F938F93BF92AF920E943920C5018B
:102D30000E9457090FB6F894DEBF0FBECDBF7BCE01
:102D400092E7C92E94E0D92E13CF6091230370919E
:102D500024038BE894E00E941009882309F488C0BA
:102D600064EA72E08FE693E00E940303D6016D915E
:102D70007C918FE693E00E94810964E172E08FE626
:102D800093E00E948109F60164A175A186A197A133
:102D9000870127E043E00E948219FF92EF9283EFC0
:102DA00091E09F938F933F922F920E94392089E266
:102DB00093E00E945709F6016085718582859385AD
:102DC00027E043E00E948219FF92EF9286E092E0B2
:102DD0009F938F933F922F920E94392089E293E034
:102DE0000E945709F60160AD71AD82AD93AD27E049
:102DF00043E00E948219FF92EF9285E991E09F9350
:102E00008F933F922F920E94392089E293E00E9493
:102E10005709F60164AD75AD86AD97AD27E043E087
:102E20000E948219FF92EF9280EA91E09F938F9324
:102E30003F922F920E94392089E293E00E94570925
:102E4000F601E05CFF4F608171818281938127E010
:102E500043E00E948219FF92EF92EBEAF1E0FF93C8
:102E6000EF933F922F920E94392089E293E060CF46
:102E700060912303709124038FE794E00E9410096E
:102E8000882341F1D6016D917C918FE693E00E94F9
:102E90008109F6016089718982899389870127E018
:102EA00043E00E948219FF92EF9281E192E09F93AA
:102EB0008F933F922F920E94392069E273E08FE650
:102EC00093E00E9481090F900F900F900F900F9048
:102ED0000F90B1CD87E494E01FCE60911F037091F5
:102EE000200382E494E00E941009882309F454C06E
:102EF00060912103709122038BE394E00E941009FA
:102F000010E000E0882311F009EC14E06091210347
:102F10007091220382E394E00E941009811139C06C
:102F200085E194E00115110509F4F6CD60E872E041
:102F30008FE693E00E940303F801808191810E9453
:102F40005709D801D4964D905D906D907C90D7979D
:102F5000085C1F4FD12CC12CF80121918F012296C2
:102F60002FAF22975601A40CB51CC5010E94A81EC4
:102F700022964FAD2297481721F0642FC5010E9479
:102F8000B01E8FEFC81AD80A9CE1C916D10421F7E8
:102F900052CD02E714E0CACF60911F037091200365
:102FA00080E194E00E9410098823A9F16091210337
:102FB0007091220389E094E00E94100910E000E083
:102FC000882311F009EC14E0609121037091220331
:102FD00080E094E00E94100981111AC083EE93E012
:102FE0000115110509F498CD6AE572E08FE693E0CA
:102FF0000E940303D8018D919C910E945709B8014A
:10300000685C7F4FF80184A995A90E94EA0813CD56
:1030100002E714E0E9CF60911F03709120038FED68
:1030200093E00E941009882309F405CD60912103E3
:103030007091220388ED93E00E94100910E000E0F7
:10304000882311F009EC14E06091210370912203B0
:103050008FEC93E00E941009811106C00115110543
:1030600029F48AED92E058CD02E714E06091230341
:103070007091240386EC93E00E9410098823F1F0FC
:10308000809126038823D1F080912503082E000C1F
:10309000990B875D9C4F0E94A019D8011C966D93D7
:1030A0007D938D939C931F9764EB73E08FE693E081
:1030B0000E940303F801808191818FC060912303F6
:1030C000709124038AEA93E00E941009882321F07A
:1030D00080912603811168C06091230370912403BD
:1030E00086EA93E00E94100981117AC0609123035F
:1030F000709124038FE893E00E941009811188C029
:1031000060912303709124038FE793E00E941009DC
:10311000811196C060912303709124038FE693E0A0
:103120000E9410098111A2C06091230370912403B1
:1031300080E693E00E9410098111AEC060912303E4
:103140007091240380E593E00E9410098111BCC0B6
:10315000609123037091240380E493E00E9410099E
:10316000882309F47ECF80912603882309F479CF40
:1031700080912503082E000C990B875D9C4F0E94BF
:10318000A4196801F0E5CF0ED11CBC01990F880B82
:10319000990B0E94881DD6016D937D938D939C930E
:1031A000139766E273E082CF80912503082E000C0E
:1031B000990B875D9C4F0E94A019F801E45BFF4FBB
:1031C000608371838283938363E973E08FE693E086
:1031D0000E940303D8018D919C910E9457092BCC2A
:1031E00080912603882309F481CF80912503082E3E
:1031F000000C990B875D9C4F0E94A019F801EC5BB5
:10320000FF4F608371838283938362E873E04ECFC4
:1032100080912603882309F473CF80912503082E1B
:10322000000C990B875D9C4F0E94A019F801E85B88
:10323000FF4F608371838283938362E773E0C6CF1D
:1032400080912603882309F465CF80912503082EF9
:10325000000C990B875D9C4F0E94A019F80160AF8C
:1032600071AF82AF93AF63E673E0B0CF8091260376
:10327000882309F459CF80912503082E000C990B5F
:10328000875D9C4F0E94A019F80164AF75AF86AFAF
:1032900097AF64E573E09ACF80912603882309F401
:1032A0004DCF80912503082E000C990B875D9C4F14
:1032B0000E94A019F801E85BFF4F6083718382834D
:1032C000938364E473E0F2CE80912603882309F4AB
:1032D0003FCF80912503082E000C990B875D9C4FF2
:1032E0000E94A419BC01990F880B990B0E94881D9C
:1032F000D80114966D937D938D939C93179763E3F8
:1033000073E0D4CEEF920F931F93CF93DF93E80136
:1033100034E047FD34E1042E000C550B57FF03C089
:10332000519541955109E32E022F242FAE010E94A1
:10333000D919CE01DF91CF911F910F91EF90089590
:10334000662777270C94381BFC0188279927E89477
:1033500021912032E9F3293010F02E30C8F32B32BE
:1033600041F02D3239F4689404C00E94D119820FC3
:10337000911D219120532A30C0F31EF49095819520
:103380009F4F0895FB01DC014150504048F00590EB
:103390000D920020C9F701C01D9241505040E0F746
:1033A00008957AE0979F902D879F802D910D11248D
:1033B0000895A9E0B0E0EFEDF9E10C94CF1E6A01A9
:1033C000F22EB02E102FFBE3AF2EA01608F41BE355
:1033D0001F5F012F27E0AE014F5F5F4F0E94881CE7
:1033E000BC018981982F9970913009F43FC09BE20C
:1033F000E1FC04C09E2D9170E0FC3AC05E2D50713E
:10340000E82FE87083FF46C084E0911101C083E09B
:10341000EF2DE81B8F1508F0E0E0D6018E2F20E29B
:10342000552351F1992329F0D6019C93C6010196A9
:103430006C0196012D5F3F4FE2FE24C08EE4D60161
:103440008C9391E411969C93119712968C93D901C9
:103450008E2F90E281111BC0E20FF32FF11D10821D
:103460008EEF9FEF2996ECE00C94EB1E9DE2C6CF09
:1034700090E2C4CF2D9381508111FCCFCE0ED11C90
:10348000E0E0D0CF8EE6D6018C9391E6DBCF9D9322
:103490008150E0CF482F447082FF3DC084E09111FD
:1034A00001C083E08F1510F4EF2DE81BD6018E2F9D
:1034B00020E2552309F1992329F0D6019C93C601F6
:1034C00001966C0196012D5F3F4FE2FE1BC089E41F
:1034D000D6018C938EE411968C93119786E4129604
:1034E0008C93D9018E2F90E2882309F4B5CF9D9358
:1034F0008150FACF2D9381508111FCCFCE0ED11C7B
:10350000E0E0D9CF89E6D6018C938EE611968C93B4
:10351000119786E6E4CF9B0177FF02C030E020E000
:10352000A1E0B0E0911102C0B0E0A0E0F901319655
:10353000AE0FBF1F8B2C912CBB2009F461C054012E
:10354000EFEFAE1ABE0AAA0DBB1DFA161B0619F044
:1035500014F04F2D4A1B511188C0E3FC59C076016D
:10356000A42FB0E2A1114FC0C40ED11C992309F4BD
:103570005BC040E0D6011196F60190836D015523A2
:1035800009F448C0012F060F9A81582F507184FF0B
:1035900003C0913309F4015010160CF047C00930F4
:1035A00008F008E0EEE2FE2E5B01A01AB1088501EA
:1035B0009194819491082F3F320729F4D601FC920F
:1035C000F60131966F016217730794F10217130722
:1035D0007CF5DB01A21BB30BAA24A394B12CAC0E87
:1035E000BD1EAA0DBB1D11968C9121503109D6012B
:1035F000119628153905F4F0F60180836D01DBCFB3
:10360000B12CA12CA0CFF701B1937F01A150AACF7B
:103610009111B0CFD601942F50E302C05D93915029
:103620009111FCCFC40ED11C40E0ACCF01E0BACF69
:1036300080E3DBCF6217730731F4963388F4953358
:1036400011F4552369F0F6018083FD01842F90E287
:10365000811108C0A40FB11D1C9290E080E002CF40
:1036600081E3F1CF91938150F3CF911183CF8ACF32
:10367000B0E0A0E0EEE3FBE10C94CF1E5C017B0127
:103680006115710519F0DB018D939C9385010F5F26
:103690001F4FF501D0818D2F90E00E94601D6C01BD
:1036A000892BB9F5DD32B9F50F5F1F4FD5011196A2
:1036B000DC91C1E05801F1E0AF1AB10843E050E0FD
:1036C00060E770E0C5010E94691D892B69F56801FA
:1036D00082E0C80ED11C45E050E06BE670E0C60108
:1036E0000E94691D892B21F4680197E0C90ED11C45
:1036F000E114F10419F0D701CD92DC9260E070E0A2
:1037000080E89FEFC111FFC060E070E080E89FE7B4
:10371000FAC05801BBCFDB3229F485010E5F1F4F81
:10372000F501D181C0E0C6CF43E050E068E670E02B
:10373000C5010E94691D892BE9F0F80110E000E045
:1037400020E030E0A9015F01B0ED8B2E8D0E89E005
:103750008815C8F19C2E689491F88C2F8870C2FF50
:1037600016C0811102C00F5F1F4F3196D501DC9149
:10377000C92DE9CFE114F10429F00E5F1F4FF701C5
:103780001183008360E070E080EC9FE7BCC0882379
:1037900011F001501109A5E0B0E00E94BE1E9B018E
:1037A000AC01220F331F441F551F280D311D411D31
:1037B000511D283999E93907490799E15907A8F2B4
:1037C000C6609C2ED2CFAEEF8A1206C0C3FD3CC0AD
:1037D0009C2E689493F8C9CFDF7DD534A9F58081FC
:1037E0008D3239F4C061DF011296818162E070E0B0
:1037F00006C0DF018B32C1F3119661E070E08053A7
:103800005D01A61AB70A8A30F8F4E0E8CE16ECE0BB
:10381000DE065CF4B601660F771F660F771FC60ED3
:10382000D71ECC0CDD1CC80ED11C5D01FFEFAF1AFA
:10383000BF0A8C9180538A30A8F1C4FF03C0D19491
:10384000C194D1080C0D1D1DC1FF09C0E114F10484
:1038500031F081E0A81AB108D701AD92BC92CA013B
:10386000B9010E94861DC370C33009F490584B0102
:103870005C0120E030E0A9010E94811D882309F449
:1038800040C0CFE9D0E017FF05C01195019511099F
:10389000C7E8D0E06E01B8E1CB1AD10880E2E82E8B
:1038A000F12C0FC0D501B1CFFE0125913591459185
:1038B00054910E191F09C501B4010E94E71D4B0167
:1038C0005C01D501C4010E151F0574F72497F5940A
:1038D000E794CC16DD06A9F78A2F880F8B2F881F57
:1038E0008F3F49F020E030E0A901C501B4010E94FA
:1038F000811D811106C082E290E090932D05809396
:103900002C05C501B401CDB7DEB7ECE00C94EB1E7D
:10391000283008F027E03327DA01990F311D87FDA1
:10392000916000966105710539F432602E5F3D9318
:1039300030E32A95E1F708959F3F30F08038710514
:10394000610509F03C5F3C5F3D93913008F0806871
:10395000911DDF93CF931F930F93FF92EF92192F37
:10396000987F9695E92F96959695E90FFF27E35056
:10397000FF4F99273327EE24FF24A701E701059085
:103980000894079428F4360FE71EF81E491F511DAE
:10399000660F771F881F991F0694A1F7059007945B
:1039A00028F4E70EF81E491F561FC11D770F881F08
:1039B000991F661F0694A1F70590079428F4F80E46
:1039C000491F561FC71FD11D880F991F661F771FDC
:1039D0000694A1F70590079420F4490F561FC71FBE
:1039E000D81F990F661F771F881F0694A9F7849127
:1039F0001095177041F0D695C79557954795F79450
:103A0000E7941A95C1F7E3EAF0E0689415901591F0
:103A100035916591959105907FE27395E118F10AD2
:103A2000430B560BC90BD009C0F7E10CF11E431F25
:103A3000561FC91FD01D7EF4703311F48A95E6CF4E
:103A4000E894015030F0080F0AF40027021708F438
:103A5000202F2395022F7A3328F079E37D932A953E
:103A6000E9F710C07D932A9589F606949795679596
:103A7000379517951794E118F10A430B560BC90BAC
:103A8000D00998F023957E9173957A3308F070E30E
:103A90007C932013B8F77E9170617D9330F083950D
:103AA00071E37D9370E32A95E1F71124EF90FF9085
:103AB0000F911F91CF91DF91992787FD90950895E0
:103AC00091110C94541E803219F089508550C8F71A
:103AD0000895FB01DC014150504088F08D91813404
:103AE0001CF08B350CF4805E659161341CF06B35F5
:103AF0000CF4605E861B611171F3990B0895881BAD
:103B0000FCCF0E94C31D08F481E00895E89409C029
:103B100097FB3EF490958095709561957F4F8F4F00
:103B20009F4F9923A9F0F92F96E9BB279395F69516
:103B3000879577956795B795F111F8CFFAF4BB0F94
:103B400011F460FF1BC06F5F7F4F8F4F9F4F16C0F8
:103B5000882311F096E911C0772321F09EE8872F82
:103B6000762F05C0662371F096E8862F70E060E03E
:103B70002AF09A95660F771F881FDAF7880F9695B7
:103B8000879597F90895990F0008550FAA0BE0E85B
:103B9000FEEF16161706E807F907C0F0121613060F
:103BA000E407F50798F0621B730B840B950B39F44F
:103BB0000A2661F0232B242B252B21F408950A26B5
:103BC00009F4A140A6958FEF811D811D08950E94E3
:103BD000FA1D0C946E1E0E94601E38F00E94671E33
:103BE00020F0952311F00C94571E0C945D1E1124A7
:103BF0000C94A21E0E947F1E70F3959FC1F3950F37
:103C000050E0551F629FF001729FBB27F00DB11D60
:103C1000639FAA27F00DB11DAA1F649F6627B00DF0
:103C2000A11D661F829F2227B00DA11D621F739FD9
:103C3000B00DA11D621F839FA00D611D221F749FE7
:103C40003327A00D611D231F849F600D211D822F2E
:103C5000762F6A2F11249F5750409AF0F1F0882355
:103C60004AF0EE0FFF1FBB1F661F771F881F915082
:103C70005040A9F79E3F510580F00C94571E0C94BC
:103C8000A21E5F3FE4F3983ED4F38695779567953F
:103C9000B795F795E7959F5FC1F7FE2B880F911DAC
:103CA0009695879597F9089599278827089597F904
:103CB0009F6780E870E060E008959FEF80EC0895D2
:103CC00000240A94161617061806090608950024FB
:103CD0000A9412161306140605060895092E039475
:103CE000000C11F4882352F0BB0F40F4BF2B11F4E9
:103CF00060FF04C06F5F7F4F8F4F9F4F089557FD48
:103D00009058440F551F59F05F3F71F04795880F49
:103D100097FB991F61F09F3F79F0879508951216E0
:103D200013061406551FF2CF4695F1DF08C016168C
:103D300017061806991FF1CF86957105610508943D
:103D40000895E894BB2766277727CB0197F9089554
:103D5000F999FECF92BD81BDF89A992780B5089553
:103D6000262FF999FECF1FBA92BD81BD20BD0FB697
:103D7000F894FA9AF99A0FBE019608950E94001FCE
:103D8000A59F900DB49F900DA49F800D911D1124AF
:103D900008952F923F924F925F926F927F928F92EF
:103DA0009F92AF92BF92CF92DF92EF92FF920F93CA
:103DB0001F93CF93DF93CDB7DEB7CA1BDB0B0FB6D4
:103DC000F894DEBF0FBECDBF09942A883988488891
:103DD0005F846E847D848C849B84AA84B984C88427
:103DE000DF80EE80FD800C811B81AA81B981CE0F1E
:103DF000D11D0FB6F894DEBF0FBECDBFED01089503
:103E0000A29FB001B39FC001A39F700D811D11241B
:103E1000911DB29F700D811D1124911D0895505860
:103E2000BB27AA270E94271F0C946E1E0E94601EAB
:103E300038F00E94671E20F039F49F3F19F426F4F1
:103E40000C945D1E0EF4E095E7FB0C94571EE92FD1
:103E50000E947F1E58F3BA176207730784079507FD
:103E600020F079F4A6F50C94A11E0EF4E0950B2E2B
:103E7000BA2FA02D0B01B90190010C01CA01A001BC
:103E80001124FF27591B99F0593F50F4503E68F117
:103E90001A16F040A22F232F342F4427585FF3CF58
:103EA000469537952795A795F0405395C9F77EF429
:103EB0001F16BA0B620B730B840BBAF09150A1F072
:103EC000FF0FBB1F661F771F881FC2F70EC0BA0FF8
:103ED000621F731F841F48F4879577956795B79580
:103EE000F7959E3F08F0B0CF9395880F08F099277B
:103EF000EE0F9795879508950E94901F0C946E1E63
:103F00000E94671E58F00E94601E40F029F45F3F37
:103F100029F00C94571E51110C94A21E0C945D1E96
:103F20000E947F1E68F39923B1F3552391F3951BEB
:103F3000550BBB27AA2762177307840738F09F5FCA
:103F40005F4F220F331F441FAA1FA9F335D00E2E37
:103F50003AF0E0E832D091505040E695001CCAF7A4
:103F60002BD0FE2F29D0660F771F881FBB1F261767
:103F700037074807AB07B0E809F0BB0B802DBF013E
:103F8000FF2793585F4F3AF09E3F510578F00C940D
:103F9000571E0C94A21E5F3FE4F3983ED4F386951F
:103FA00077956795B795F7959F5FC9F7880F911D2E
:103FB0009695879597F90895E1E0660F771F881F1A
:103FC000BB1F621773078407BA0720F0621B730BCD
:103FD000840BBA0BEE1F88F7E09508950E94F51F39
:103FE0006894B1110C94A21E08950E94871E88F057
:103FF0009F5798F0B92F9927B751B0F0E1F0660FAD
:10400000771F881F991F1AF0BA95C9F714C0B130ED
:1040100091F00E94A11EB1E008950C94A11E672F9B
:10402000782F8827B85F39F0B93FCCF3869577951C
:104030006795B395D9F73EF4909580957095619505
:104040007F4F8F4F9F4F08950E94C31D08F48FEF3D
:1040500008950E94C31D880B990B0895EE0FFF1F52
:104060000590F491E02D099481E090E0F8940C948F
:10407000DA22AEE0B0E0EFE3F0E20C94D71E0D8957
:104080001E8986E08C831A8309838FEF9FE79E83C6
:104090008D83AE01475E5F4F6F89788DCE010196AB
:1040A0000E945C202F813885020F131FF8011082B7
:1040B0002E96E4E00C94F31EABE0B0E0E2E6F0E212
:1040C0000C94C91E7C013B018A01FC0117821682F7
:1040D000838181FFC8C1CE0101965C01F701938104
:1040E000F30193FD859193FF81913F01882309F4AA
:1040F00053C1853239F493FD859193FF81913F013E
:10410000853229F4B70190E00E944C22E7CF912C30
:10411000212C312CFFE1F31538F08B3211F190F4A2
:10412000803209F1833229F137FC3CC020ED280FA1
:104130002A3050F536FE20C08AE0989E200D1124CA
:10414000922E06C08D3291F0803371F7689430F86A
:10415000F30193FD859193FF81913F018111DACFA6
:1041600021C0689431F8689432F8F2CF689433F83B
:10417000EFCF689434F8ECCFEAE02E9E200D1124A6
:10418000222E689435F8E4CF8E3229F436FC04C12F
:10419000689436F8DDCF8C3619F4689437F8D8CFA8
:1041A0008836B1F2982F9F7D95549330E0F0833696
:1041B000A1F18337C1F1833509F063C02801F2E032
:1041C0004F0E511CF801C080D180692D70E036FC83
:1041D00002C06FEF7FEFC6010E9436224C01689447
:1041E00037F882010AC00C5F1F4FFFE3F983882470
:1041F0008394912C6501E89437F833FE2DC0522C3E
:104200008114910471F5552009F468CFB70180E25B
:1042100090E00E944C225A94F6CFF8018081898365
:104220000E5F1F4FE4CF2801F2E04F0E511CF80142
:10423000C080D180692D70E036FC02C06FEF7FEF47
:10424000C6010E9441224C018201D5CFB70180E214
:1042500090E00E944C222A942814190409F0B0F727
:10426000CECFF60137FC859137FE81916F01B70102
:1042700090E00E944C2251105A94F1E08F1A91085C
:10428000BFCF843619F0893609F077C0F80137FEC0
:104290006BC060817181828193810C5F1F4FF32D10
:1042A000FF763F2E97FF09C0909580957095619598
:1042B0007F4F8F4F9F4F689437F82AE030E0A50179
:1042C0000E947C22C82ECA188C2C432C36FE0CC0AF
:1042D000E89440F8C91440F434FE05C032FC03C031
:1042E000F32DFE7E4F2E892C44FE95C0FE01EC0D71
:1042F000F11D8081803309F087C0242D297E422E54
:10430000842D8870582E43FC95C040FE8FC09C2C95
:10431000821418F42C0C922C981844FE91C0B7010A
:1043200080E390E00E944C2242FE09C088E790E0C2
:1043300041FE02C088E590E0B7010E944C22C914FA
:1043400008F48AC0CA94D12C9FEFC91AD90ACA0CA2
:10435000DB1CF60182916F01B70190E00E944C22B4
:10436000AC14BD04B1F74FCF60817181072E000CF2
:10437000880B990B0E5F1F4F92CFD32CE894D4F883
:104380002AE030E0853739F1232D297FD22E8F3670
:1043900001F148F48835A9F0F701868197812B96C1
:1043A000E2E10C94E51E803749F08837A9F7D4FE86
:1043B00002C06894D2F820E130E00DC06894D4F8CF
:1043C000F6CF34FE03C0822F8660D82E20E132E083
:1043D00002C028E030E0F801D7FE0FC06081718193
:1043E000828193810C5F1F4FA5010E947C22C82E01
:1043F000CA183D2CE89437F867CF6081718190E04E
:1044000080E00E5F1F4FF0CF42FC02C0839478CF54
:104410008394839475CF842D867809F471CFF6CF79
:10442000B70180E290E00E944C2283948214C0F392
:10443000512C73CF522C5818821408F46ECFF8CF39
:10444000842D867809F47BCF8BE241FE80E247FC25
:104450008DE2B70190E071CFB70180E390E00E9458
:104460004C229A946CCF8FEF9FEF99CFFC0105906F
:10447000615070400110D8F7809590958E0F9F1F66
:104480000895FC016150704001900110D8F78095AB
:1044900090958E0F9F1F08950F931F93CF93DF93D7
:1044A000182F092FEB018B8181FD09C01FEF0FEF42
:1044B000812F902FDF91CF911F910F91089582FF4F
:1044C00014C02E813F818C819D81281739073CF4CF
:1044D000E881F981CF0101969983888310838E81C9
:1044E0009F8101969F838E83E3CFE885F985812F95
:1044F0000995892BA1F3DACFFA01AA27283051F1C7
:10450000203181F1E8946F936E7F6E5F7F4F8F4F04
:104510009F4FAF4FB1E03ED0B4E03CD0670F781F63
:10452000891F9A1FA11D680F791F8A1F911DA11D48
:104530006A0F711D811D911DA11D20D009F4689481
:104540003F912AE0269F11243019305D3193DEF629
:10455000CF010895462F4770405D4193B3E00FD0DF
:10456000C9F7F6CF462F4F70405D4A3318F0495DCA
:1045700031FD4052419302D0A9F7EACFB4E0A695AD
:104580009795879577956795BA95C9F700976105CF
:10459000710508959B01AC010A2E06945795479525
:1045A00037952795BA95C9F7620F731F841F951F1A
:0845B000A01D0895F894FFCF4F
:1045B80001000040001400540000000000C7032759
:1045C800035403140485036303770300000000DD2C
:1045D80006B006F4078606A90696068706000000B8
:1045E80000D905D50500000000320A2703F407F3B7
:1045F8000743004175746F002020202000536F6C22
:10460800646572004465736F6C64657200496E6915
:104618007469616C697A696E672E2E2E00546F205A
:1046280073686F772068656C7020747970653A20BC
:1046380068656C700054656D70657261747572653B
:104648003A20257300504944204B703A20257300C6
:10465800504944204B693A20257300504944204B67
:10466800643A20257300504944206D61783A20252A
:104678007300504944206D696E3A202573005049F3
:10468800442073657420706F696E743A2025730036
:1046980050494420686F6C6420706F696E743A20CA
:1046A80025730050726576696F7573206572726F35
:1046B800723A202573004F75747075743A2025730B
:0846C800002025730D0A00001B
:00000001FF
